{
    "000-fork=Cancun-too_few_blobs": {
        "_info": {
            "filling-transition-tool": "evm version 1.11.5-unstable-75b94689-20230727",
            "reference-spec": "https://github.com/ethereum/EIPs/blob/master/EIPS/eip-4844.md",
            "reference-spec-version": "f0eb6a364aaf5ccb43516fa2c269a54fb881ecfd"
        },
        "blocks": [
            {
                "rlp": "0xf9028cf9021ca03b7acb5f4f80bfc09ad0a6ed6405fbe6c86828246c77915aa48b5d84953ecbbba01dcc4de8dec75d7aab85b567b6ccd41ad312451b948a7413f0a142fd40d49347942adc25665018aa1fe0e6bc666dac8fc2697ff9baa051f41d6ab2123b8c2bef303127d48c31e5b8ccee1bfde9f853f443fe9711c3faa056e81f171bcc55a6ff8345e692c0f86e5b48e01b996cadc001622fb5e363b421a056e81f171bcc55a6ff8345e692c0f86e5b48e01b996cadc001622fb5e363b421b9010000000000000000000000000000000000000000000000000000000000000000000000000000000000000000000000000000000000000000000000000000000000000000000000000000000000000000000000000000000000000000000000000000000000000000000000000000000000000000000000000000000000000000000000000000000000000000000000000000000000000000000000000000000000000000000000000000000000000000000000000000000000000000000000000000000000000000000000000000000000000000000000000000000000000000000000000000000000000000000000000000000000000000000000000000000000800188016345785d8a0000800c80a0000000000000000000000000000000000000000000000000000000000000000088000000000000000007a056e81f171bcc55a6ff8345e692c0f86e5b48e01b996cadc001622fb5e363b42180830e0000f869b86703f864018080078252089400000000000000000000000000000000000001000180c001c080a0de3ecf0321e2d26c34d6b9bd1ffb5a30167abafd5ecacd477049544c23d402cda06c56b464881a4af7bb8216d47c6c5e3286395027af44044b3d7d31a2d24901f2c0c0",
                "engineNewPayload": {
                    "executionPayload": {
                        "parentHash": "0x3b7acb5f4f80bfc09ad0a6ed6405fbe6c86828246c77915aa48b5d84953ecbbb",
                        "feeRecipient": "0x2adc25665018aa1fe0e6bc666dac8fc2697ff9ba",
                        "stateRoot": "0x51f41d6ab2123b8c2bef303127d48c31e5b8ccee1bfde9f853f443fe9711c3fa",
                        "receiptsRoot": "0x56e81f171bcc55a6ff8345e692c0f86e5b48e01b996cadc001622fb5e363b421",
                        "logsBloom": "0x00000000000000000000000000000000000000000000000000000000000000000000000000000000000000000000000000000000000000000000000000000000000000000000000000000000000000000000000000000000000000000000000000000000000000000000000000000000000000000000000000000000000000000000000000000000000000000000000000000000000000000000000000000000000000000000000000000000000000000000000000000000000000000000000000000000000000000000000000000000000000000000000000000000000000000000000000000000000000000000000000000000000000000000000000000000",
                        "blockNumber": "0x1",
                        "gasLimit": "0x16345785d8a0000",
                        "gasUsed": "0x0",
                        "timestamp": "0xc",
                        "extraData": "0x",
                        "prevRandao": "0x0000000000000000000000000000000000000000000000000000000000000000",
                        "baseFeePerGas": "0x7",
                        "blobGasUsed": "0x0",
                        "excessBlobGas": "0xe0000",
                        "blockHash": "0x68208eac11c4ccf69b2e25748787386b0c97cb1fe9a64d68518ca828715d0bce",
                        "transactions": [
                            "0x03f864018080078252089400000000000000000000000000000000000001000180c001c080a0de3ecf0321e2d26c34d6b9bd1ffb5a30167abafd5ecacd477049544c23d402cda06c56b464881a4af7bb8216d47c6c5e3286395027af44044b3d7d31a2d24901f2"
                        ],
                        "withdrawals": []
                    },
                    "expectedBlobVersionedHashes": [],
                    "version": "3"
                },
                "expectException": "zero_blob_tx",
                "blocknumber": "1"
            }
        ],
        "genesisBlockHeader": {
            "parentHash": "0x0000000000000000000000000000000000000000000000000000000000000000",
            "uncleHash": "0x1dcc4de8dec75d7aab85b567b6ccd41ad312451b948a7413f0a142fd40d49347",
            "coinbase": "0x0000000000000000000000000000000000000000",
            "stateRoot": "0x51f41d6ab2123b8c2bef303127d48c31e5b8ccee1bfde9f853f443fe9711c3fa",
            "transactionsTrie": "0x56e81f171bcc55a6ff8345e692c0f86e5b48e01b996cadc001622fb5e363b421",
            "receiptTrie": "0x56e81f171bcc55a6ff8345e692c0f86e5b48e01b996cadc001622fb5e363b421",
            "bloom": "0x00000000000000000000000000000000000000000000000000000000000000000000000000000000000000000000000000000000000000000000000000000000000000000000000000000000000000000000000000000000000000000000000000000000000000000000000000000000000000000000000000000000000000000000000000000000000000000000000000000000000000000000000000000000000000000000000000000000000000000000000000000000000000000000000000000000000000000000000000000000000000000000000000000000000000000000000000000000000000000000000000000000000000000000000000000000",
            "difficulty": "0x00",
            "number": "0x00",
            "gasLimit": "0x016345785d8a0000",
            "gasUsed": "0x00",
            "timestamp": "0x00",
            "extraData": "0x00",
            "mixHash": "0x0000000000000000000000000000000000000000000000000000000000000000",
            "nonce": "0x0000000000000000",
            "baseFeePerGas": "0x07",
            "withdrawalsRoot": "0x56e81f171bcc55a6ff8345e692c0f86e5b48e01b996cadc001622fb5e363b421",
            "blobGasUsed": "0x00",
            "excessBlobGas": "0x140000",
            "hash": "0x3b7acb5f4f80bfc09ad0a6ed6405fbe6c86828246c77915aa48b5d84953ecbbb"
        },
        "genesisRLP": "0xf90222f9021ca00000000000000000000000000000000000000000000000000000000000000000a01dcc4de8dec75d7aab85b567b6ccd41ad312451b948a7413f0a142fd40d49347940000000000000000000000000000000000000000a051f41d6ab2123b8c2bef303127d48c31e5b8ccee1bfde9f853f443fe9711c3faa056e81f171bcc55a6ff8345e692c0f86e5b48e01b996cadc001622fb5e363b421a056e81f171bcc55a6ff8345e692c0f86e5b48e01b996cadc001622fb5e363b421b9010000000000000000000000000000000000000000000000000000000000000000000000000000000000000000000000000000000000000000000000000000000000000000000000000000000000000000000000000000000000000000000000000000000000000000000000000000000000000000000000000000000000000000000000000000000000000000000000000000000000000000000000000000000000000000000000000000000000000000000000000000000000000000000000000000000000000000000000000000000000000000000000000000000000000000000000000000000000000000000000000000000000000000000000000000000000808088016345785d8a0000808000a0000000000000000000000000000000000000000000000000000000000000000088000000000000000007a056e81f171bcc55a6ff8345e692c0f86e5b48e01b996cadc001622fb5e363b4218083140000c0c0c0",
        "lastblockhash": "0x3b7acb5f4f80bfc09ad0a6ed6405fbe6c86828246c77915aa48b5d84953ecbbb",
        "network": "Cancun",
        "pre": {
            "0xa94f5374fce5edbc8e2a8697c15331677e6ebf0b": {
                "nonce": "0x00",
                "balance": "0x023e39",
                "code": "0x",
                "storage": {}
            }
        },
        "postState": {
            "0xa94f5374fce5edbc8e2a8697c15331677e6ebf0b": {
                "nonce": "0x00",
                "balance": "0x023e39",
                "code": "0x",
                "storage": {}
            }
        },
        "sealEngine": "NoProof"
    },
    "001-fork=Cancun-too_many_blobs": {
        "_info": {
            "filling-transition-tool": "evm version 1.11.5-unstable-75b94689-20230727",
            "reference-spec": "https://github.com/ethereum/EIPs/blob/master/EIPS/eip-4844.md",
            "reference-spec-version": "f0eb6a364aaf5ccb43516fa2c269a54fb881ecfd"
        },
        "blocks": [
            {
                "rlp": "0xf9037af9021fa0bec4a5507e464379ab1d1672af00054467c934ab69ba52bce66cc7e6aa058bcda01dcc4de8dec75d7aab85b567b6ccd41ad312451b948a7413f0a142fd40d49347942adc25665018aa1fe0e6bc666dac8fc2697ff9baa0c5300c287b0a8d944f7623ad602b2b3f6ec4bb6ef682848b2cc7aeba3b908e68a056e81f171bcc55a6ff8345e692c0f86e5b48e01b996cadc001622fb5e363b421a056e81f171bcc55a6ff8345e692c0f86e5b48e01b996cadc001622fb5e363b421b9010000000000000000000000000000000000000000000000000000000000000000000000000000000000000000000000000000000000000000000000000000000000000000000000000000000000000000000000000000000000000000000000000000000000000000000000000000000000000000000000000000000000000000000000000000000000000000000000000000000000000000000000000000000000000000000000000000000000000000000000000000000000000000000000000000000000000000000000000000000000000000000000000000000000000000000000000000000000000000000000000000000000000000000000000000000000800188016345785d8a0000800c80a0000000000000000000000000000000000000000000000000000000000000000088000000000000000007a056e81f171bcc55a6ff8345e692c0f86e5b48e01b996cadc001622fb5e363b421830e0000830e0000f90153b9015003f9014c018080078252089400000000000000000000000000000000000001000180c001f8e7a00100000000000000000000000000000000000000000000000000000000000000a00100000000000000000000000000000000000000000000000000000000000001a00100000000000000000000000000000000000000000000000000000000000002a00100000000000000000000000000000000000000000000000000000000000003a00100000000000000000000000000000000000000000000000000000000000004a00100000000000000000000000000000000000000000000000000000000000005a0010000000000000000000000000000000000000000000000000000000000000601a0af0a7ac2ca1a38440aff74ef5585589516aaf73984ca8ebee703f42a54dab9f6a056fc83d4ea63ef0f3b40ef86d36f887df7c46bad309dca7ceda55a2ba985f7a1c0c0",
                "engineNewPayload": {
                    "executionPayload": {
                        "parentHash": "0xbec4a5507e464379ab1d1672af00054467c934ab69ba52bce66cc7e6aa058bcd",
                        "feeRecipient": "0x2adc25665018aa1fe0e6bc666dac8fc2697ff9ba",
                        "stateRoot": "0xc5300c287b0a8d944f7623ad602b2b3f6ec4bb6ef682848b2cc7aeba3b908e68",
                        "receiptsRoot": "0x56e81f171bcc55a6ff8345e692c0f86e5b48e01b996cadc001622fb5e363b421",
                        "logsBloom": "0x00000000000000000000000000000000000000000000000000000000000000000000000000000000000000000000000000000000000000000000000000000000000000000000000000000000000000000000000000000000000000000000000000000000000000000000000000000000000000000000000000000000000000000000000000000000000000000000000000000000000000000000000000000000000000000000000000000000000000000000000000000000000000000000000000000000000000000000000000000000000000000000000000000000000000000000000000000000000000000000000000000000000000000000000000000000",
                        "blockNumber": "0x1",
                        "gasLimit": "0x16345785d8a0000",
                        "gasUsed": "0x0",
                        "timestamp": "0xc",
                        "extraData": "0x",
                        "prevRandao": "0x0000000000000000000000000000000000000000000000000000000000000000",
                        "baseFeePerGas": "0x7",
                        "blobGasUsed": "0xe0000",
                        "excessBlobGas": "0xe0000",
                        "blockHash": "0xe3b858dc8b247b98e8fc1e5c67ad137c59df7c0a6589a41a9b7358b8678016c1",
                        "transactions": [
                            "0x03f9014c018080078252089400000000000000000000000000000000000001000180c001f8e7a00100000000000000000000000000000000000000000000000000000000000000a00100000000000000000000000000000000000000000000000000000000000001a00100000000000000000000000000000000000000000000000000000000000002a00100000000000000000000000000000000000000000000000000000000000003a00100000000000000000000000000000000000000000000000000000000000004a00100000000000000000000000000000000000000000000000000000000000005a0010000000000000000000000000000000000000000000000000000000000000601a0af0a7ac2ca1a38440aff74ef5585589516aaf73984ca8ebee703f42a54dab9f6a056fc83d4ea63ef0f3b40ef86d36f887df7c46bad309dca7ceda55a2ba985f7a1"
                        ],
                        "withdrawals": []
                    },
                    "expectedBlobVersionedHashes": [
                        "0x0100000000000000000000000000000000000000000000000000000000000000",
                        "0x0100000000000000000000000000000000000000000000000000000000000001",
                        "0x0100000000000000000000000000000000000000000000000000000000000002",
                        "0x0100000000000000000000000000000000000000000000000000000000000003",
                        "0x0100000000000000000000000000000000000000000000000000000000000004",
                        "0x0100000000000000000000000000000000000000000000000000000000000005",
                        "0x0100000000000000000000000000000000000000000000000000000000000006"
                    ],
                    "version": "3"
                },
                "expectException": "too_many_blobs_tx",
                "blocknumber": "1"
            }
        ],
        "genesisBlockHeader": {
            "parentHash": "0x0000000000000000000000000000000000000000000000000000000000000000",
            "uncleHash": "0x1dcc4de8dec75d7aab85b567b6ccd41ad312451b948a7413f0a142fd40d49347",
            "coinbase": "0x0000000000000000000000000000000000000000",
            "stateRoot": "0xc5300c287b0a8d944f7623ad602b2b3f6ec4bb6ef682848b2cc7aeba3b908e68",
            "transactionsTrie": "0x56e81f171bcc55a6ff8345e692c0f86e5b48e01b996cadc001622fb5e363b421",
            "receiptTrie": "0x56e81f171bcc55a6ff8345e692c0f86e5b48e01b996cadc001622fb5e363b421",
            "bloom": "0x00000000000000000000000000000000000000000000000000000000000000000000000000000000000000000000000000000000000000000000000000000000000000000000000000000000000000000000000000000000000000000000000000000000000000000000000000000000000000000000000000000000000000000000000000000000000000000000000000000000000000000000000000000000000000000000000000000000000000000000000000000000000000000000000000000000000000000000000000000000000000000000000000000000000000000000000000000000000000000000000000000000000000000000000000000000",
            "difficulty": "0x00",
            "number": "0x00",
            "gasLimit": "0x016345785d8a0000",
            "gasUsed": "0x00",
            "timestamp": "0x00",
            "extraData": "0x00",
            "mixHash": "0x0000000000000000000000000000000000000000000000000000000000000000",
            "nonce": "0x0000000000000000",
            "baseFeePerGas": "0x07",
            "withdrawalsRoot": "0x56e81f171bcc55a6ff8345e692c0f86e5b48e01b996cadc001622fb5e363b421",
            "blobGasUsed": "0x00",
            "excessBlobGas": "0x140000",
            "hash": "0xbec4a5507e464379ab1d1672af00054467c934ab69ba52bce66cc7e6aa058bcd"
        },
        "genesisRLP": "0xf90222f9021ca00000000000000000000000000000000000000000000000000000000000000000a01dcc4de8dec75d7aab85b567b6ccd41ad312451b948a7413f0a142fd40d49347940000000000000000000000000000000000000000a0c5300c287b0a8d944f7623ad602b2b3f6ec4bb6ef682848b2cc7aeba3b908e68a056e81f171bcc55a6ff8345e692c0f86e5b48e01b996cadc001622fb5e363b421a056e81f171bcc55a6ff8345e692c0f86e5b48e01b996cadc001622fb5e363b421b9010000000000000000000000000000000000000000000000000000000000000000000000000000000000000000000000000000000000000000000000000000000000000000000000000000000000000000000000000000000000000000000000000000000000000000000000000000000000000000000000000000000000000000000000000000000000000000000000000000000000000000000000000000000000000000000000000000000000000000000000000000000000000000000000000000000000000000000000000000000000000000000000000000000000000000000000000000000000000000000000000000000000000000000000000000000000808088016345785d8a0000808000a0000000000000000000000000000000000000000000000000000000000000000088000000000000000007a056e81f171bcc55a6ff8345e692c0f86e5b48e01b996cadc001622fb5e363b4218083140000c0c0c0",
        "lastblockhash": "0xbec4a5507e464379ab1d1672af00054467c934ab69ba52bce66cc7e6aa058bcd",
        "network": "Cancun",
        "pre": {
            "0xa94f5374fce5edbc8e2a8697c15331677e6ebf0b": {
                "nonce": "0x00",
                "balance": "0x103e39",
                "code": "0x",
                "storage": {}
            }
        },
        "postState": {
            "0xa94f5374fce5edbc8e2a8697c15331677e6ebf0b": {
                "nonce": "0x00",
                "balance": "0x103e39",
                "code": "0x",
                "storage": {}
            }
        },
        "sealEngine": "NoProof"
    }
}