{
    "000-fork=Merge": {
        "_info": {
            "filling-transition-tool": "evm version 1.13.0-unstable-0bf2d99a"
        },
        "blocks": [
            {
                "rlp": "0xf90388f901f9a00072487cc0d0e5b14e36bfc82c71a61c50b9b18e44439ac053801b96c42d46dfa01dcc4de8dec75d7aab85b567b6ccd41ad312451b948a7413f0a142fd40d49347942adc25665018aa1fe0e6bc666dac8fc2697ff9baa0784b5bf4cdac3b738a2e84c5c05697b8feb6c0a2f8764dfa02391914ff0e1d4ea05fb0f79e6e813d1f0e1c53a26406f691ebab264a4920e2005538891ce7e7e49ba02dfd10b10e18070686b373aabc036eb2b4872c3658542a235681fddf8c23b6e4b9010000000000000000000000000000000000000000000000000000000000000000000000000000000000000000000000000000000000000000000000000000000000000000000000000000000000000000000000000000000000000000000000000000000000000000000000000000000000000000000000000000000000000000000000000000000000000000000000000000000000000000000000000000000000000000000000000000000000000000000000000000000000000000000000000000000000000000000000000000000000000000000000000000000000000000000000000000000000000000000000000000000000000000000000000000000000800188016345785d8a00008303351a0c80a0000000000000000000000000000000000000000000000000000000000000000088000000000000000007f90188f860800a830f42409400000000000000000000000000000000000000cc808026a0ccba01db2304343a85970166cada3a975f30075a600d3686102ae6d07b5a8295a0417b652184cdc19ba7cf787d7fa0658b7222616b4962aec60a29a41d26b22f72f860010a830186a094000000000000000000000000000000000000ba11808025a08388daba93f7822d3182dab304cc4edc82072c35374944f93a650c033169488aa012cc16a5c3327aade9b3215c9de2f844704be1683398e6f419674186531a6353f860020a830186a094864bbda5c698ac34b47a9ea3bd4228802cc5ce3b058026a0c23895b8eef67d060fa6365e97fd3edfae9a42d1e004dd143ddb8c60d1c4d016a0555733cc482d7b453b61ef44ad12b6e007a0bd11b4647e86bd5a1ce63cf6e022f860030a830186a094000000000000000000000000000000000000ba12808026a089fa4e48f8f7c161bd227c6e116bb33a84633f478496f0f10a1cb634dbd16c7da006191b9b2fd038d0abdc937351f90fd08bc54e8acb31f7d5bf0b3327d12067d7c0",
                "blockHeader": {
                    "parentHash": "0x0072487cc0d0e5b14e36bfc82c71a61c50b9b18e44439ac053801b96c42d46df",
                    "uncleHash": "0x1dcc4de8dec75d7aab85b567b6ccd41ad312451b948a7413f0a142fd40d49347",
                    "coinbase": "0x2adc25665018aa1fe0e6bc666dac8fc2697ff9ba",
                    "stateRoot": "0x784b5bf4cdac3b738a2e84c5c05697b8feb6c0a2f8764dfa02391914ff0e1d4e",
                    "transactionsTrie": "0x5fb0f79e6e813d1f0e1c53a26406f691ebab264a4920e2005538891ce7e7e49b",
                    "receiptTrie": "0x2dfd10b10e18070686b373aabc036eb2b4872c3658542a235681fddf8c23b6e4",
                    "bloom": "0x00000000000000000000000000000000000000000000000000000000000000000000000000000000000000000000000000000000000000000000000000000000000000000000000000000000000000000000000000000000000000000000000000000000000000000000000000000000000000000000000000000000000000000000000000000000000000000000000000000000000000000000000000000000000000000000000000000000000000000000000000000000000000000000000000000000000000000000000000000000000000000000000000000000000000000000000000000000000000000000000000000000000000000000000000000000",
                    "difficulty": "0x00",
                    "number": "0x01",
                    "gasLimit": "0x016345785d8a0000",
                    "gasUsed": "0x03351a",
                    "timestamp": "0x0c",
                    "extraData": "0x",
                    "mixHash": "0x0000000000000000000000000000000000000000000000000000000000000000",
                    "nonce": "0x0000000000000000",
                    "baseFeePerGas": "0x07",
                    "hash": "0x9cada6370f1c39d6e40e53e57ac967904f65de75dac01500417f700f8d03c34c"
                },
                "engineNewPayload": {
                    "executionPayload": {
                        "parentHash": "0x0072487cc0d0e5b14e36bfc82c71a61c50b9b18e44439ac053801b96c42d46df",
                        "feeRecipient": "0x2adc25665018aa1fe0e6bc666dac8fc2697ff9ba",
                        "stateRoot": "0x784b5bf4cdac3b738a2e84c5c05697b8feb6c0a2f8764dfa02391914ff0e1d4e",
                        "receiptsRoot": "0x2dfd10b10e18070686b373aabc036eb2b4872c3658542a235681fddf8c23b6e4",
                        "logsBloom": "0x00000000000000000000000000000000000000000000000000000000000000000000000000000000000000000000000000000000000000000000000000000000000000000000000000000000000000000000000000000000000000000000000000000000000000000000000000000000000000000000000000000000000000000000000000000000000000000000000000000000000000000000000000000000000000000000000000000000000000000000000000000000000000000000000000000000000000000000000000000000000000000000000000000000000000000000000000000000000000000000000000000000000000000000000000000000",
                        "blockNumber": "0x1",
                        "gasLimit": "0x16345785d8a0000",
                        "gasUsed": "0x3351a",
                        "timestamp": "0xc",
                        "extraData": "0x",
                        "prevRandao": "0x0000000000000000000000000000000000000000000000000000000000000000",
                        "baseFeePerGas": "0x7",
                        "blockHash": "0x9cada6370f1c39d6e40e53e57ac967904f65de75dac01500417f700f8d03c34c",
                        "transactions": [
                            "0xf860800a830f42409400000000000000000000000000000000000000cc808026a0ccba01db2304343a85970166cada3a975f30075a600d3686102ae6d07b5a8295a0417b652184cdc19ba7cf787d7fa0658b7222616b4962aec60a29a41d26b22f72",
                            "0xf860010a830186a094000000000000000000000000000000000000ba11808025a08388daba93f7822d3182dab304cc4edc82072c35374944f93a650c033169488aa012cc16a5c3327aade9b3215c9de2f844704be1683398e6f419674186531a6353",
                            "0xf860020a830186a094864bbda5c698ac34b47a9ea3bd4228802cc5ce3b058026a0c23895b8eef67d060fa6365e97fd3edfae9a42d1e004dd143ddb8c60d1c4d016a0555733cc482d7b453b61ef44ad12b6e007a0bd11b4647e86bd5a1ce63cf6e022",
                            "0xf860030a830186a094000000000000000000000000000000000000ba12808026a089fa4e48f8f7c161bd227c6e116bb33a84633f478496f0f10a1cb634dbd16c7da006191b9b2fd038d0abdc937351f90fd08bc54e8acb31f7d5bf0b3327d12067d7"
                        ]
                    },
                    "version": "1"
                },
                "blocknumber": "1",
                "transactions": [
                    {
                        "type": "0x00",
                        "chainId": "0x01",
                        "nonce": "0x00",
                        "gasPrice": "0x0a",
                        "gasLimit": "0x0f4240",
                        "to": "0x00000000000000000000000000000000000000cc",
                        "value": "0x00",
                        "data": "0x",
                        "v": "0x26",
                        "r": "0xccba01db2304343a85970166cada3a975f30075a600d3686102ae6d07b5a8295",
                        "s": "0x417b652184cdc19ba7cf787d7fa0658b7222616b4962aec60a29a41d26b22f72",
                        "sender": "0xa94f5374fce5edbc8e2a8697c15331677e6ebf0b"
                    },
                    {
                        "type": "0x00",
                        "chainId": "0x01",
                        "nonce": "0x01",
                        "gasPrice": "0x0a",
                        "gasLimit": "0x0186a0",
                        "to": "0x000000000000000000000000000000000000ba11",
                        "value": "0x00",
                        "data": "0x",
                        "v": "0x25",
                        "r": "0x8388daba93f7822d3182dab304cc4edc82072c35374944f93a650c033169488a",
                        "s": "0x12cc16a5c3327aade9b3215c9de2f844704be1683398e6f419674186531a6353",
                        "sender": "0xa94f5374fce5edbc8e2a8697c15331677e6ebf0b"
                    },
                    {
                        "type": "0x00",
                        "chainId": "0x01",
                        "nonce": "0x02",
                        "gasPrice": "0x0a",
                        "gasLimit": "0x0186a0",
                        "to": "0x864bbda5c698ac34b47a9ea3bd4228802cc5ce3b",
                        "value": "0x05",
                        "data": "0x",
                        "v": "0x26",
                        "r": "0xc23895b8eef67d060fa6365e97fd3edfae9a42d1e004dd143ddb8c60d1c4d016",
                        "s": "0x555733cc482d7b453b61ef44ad12b6e007a0bd11b4647e86bd5a1ce63cf6e022",
                        "sender": "0xa94f5374fce5edbc8e2a8697c15331677e6ebf0b"
                    },
                    {
                        "type": "0x00",
                        "chainId": "0x01",
                        "nonce": "0x03",
                        "gasPrice": "0x0a",
                        "gasLimit": "0x0186a0",
                        "to": "0x000000000000000000000000000000000000ba12",
                        "value": "0x00",
                        "data": "0x",
                        "v": "0x26",
                        "r": "0x89fa4e48f8f7c161bd227c6e116bb33a84633f478496f0f10a1cb634dbd16c7d",
                        "s": "0x06191b9b2fd038d0abdc937351f90fd08bc54e8acb31f7d5bf0b3327d12067d7",
                        "sender": "0xa94f5374fce5edbc8e2a8697c15331677e6ebf0b"
                    }
                ],
                "uncleHeaders": []
            }
        ],
        "genesisBlockHeader": {
            "parentHash": "0x0000000000000000000000000000000000000000000000000000000000000000",
            "uncleHash": "0x1dcc4de8dec75d7aab85b567b6ccd41ad312451b948a7413f0a142fd40d49347",
            "coinbase": "0x0000000000000000000000000000000000000000",
            "stateRoot": "0x6a25755ef4ab6363a1476d1c706ce0962900e8177afe7b9dd9974966ef3f3ed5",
            "transactionsTrie": "0x56e81f171bcc55a6ff8345e692c0f86e5b48e01b996cadc001622fb5e363b421",
            "receiptTrie": "0x56e81f171bcc55a6ff8345e692c0f86e5b48e01b996cadc001622fb5e363b421",
            "bloom": "0x00000000000000000000000000000000000000000000000000000000000000000000000000000000000000000000000000000000000000000000000000000000000000000000000000000000000000000000000000000000000000000000000000000000000000000000000000000000000000000000000000000000000000000000000000000000000000000000000000000000000000000000000000000000000000000000000000000000000000000000000000000000000000000000000000000000000000000000000000000000000000000000000000000000000000000000000000000000000000000000000000000000000000000000000000000000",
            "difficulty": "0x00",
            "number": "0x00",
            "gasLimit": "0x016345785d8a0000",
            "gasUsed": "0x00",
            "timestamp": "0x00",
            "extraData": "0x00",
            "mixHash": "0x0000000000000000000000000000000000000000000000000000000000000000",
            "nonce": "0x0000000000000000",
            "baseFeePerGas": "0x07",
            "hash": "0x0072487cc0d0e5b14e36bfc82c71a61c50b9b18e44439ac053801b96c42d46df"
        },
        "genesisRLP": "0xf901fbf901f6a00000000000000000000000000000000000000000000000000000000000000000a01dcc4de8dec75d7aab85b567b6ccd41ad312451b948a7413f0a142fd40d49347940000000000000000000000000000000000000000a06a25755ef4ab6363a1476d1c706ce0962900e8177afe7b9dd9974966ef3f3ed5a056e81f171bcc55a6ff8345e692c0f86e5b48e01b996cadc001622fb5e363b421a056e81f171bcc55a6ff8345e692c0f86e5b48e01b996cadc001622fb5e363b421b9010000000000000000000000000000000000000000000000000000000000000000000000000000000000000000000000000000000000000000000000000000000000000000000000000000000000000000000000000000000000000000000000000000000000000000000000000000000000000000000000000000000000000000000000000000000000000000000000000000000000000000000000000000000000000000000000000000000000000000000000000000000000000000000000000000000000000000000000000000000000000000000000000000000000000000000000000000000000000000000000000000000000000000000000000000000000808088016345785d8a0000808000a0000000000000000000000000000000000000000000000000000000000000000088000000000000000007c0c0",
        "lastblockhash": "0x9cada6370f1c39d6e40e53e57ac967904f65de75dac01500417f700f8d03c34c",
        "network": "Merge",
        "pre": {
            "0x00000000000000000000000000000000000000aa": {
                "nonce": "0x00",
                "balance": "0x00",
                "code": "0x61001c600081600b8239f334600014601857346001146010575b005b47600055600e565b60aaff",
                "storage": {}
            },
            "0x00000000000000000000000000000000000000cc": {
                "nonce": "0x01",
                "balance": "0x3b9aca00",
                "code": "0x60aa3b6000600060aa3c60aa3b60006003f06000600060006000600073864bbda5c698ac34b47a9ea3bd4228802cc5ce3b620186a0f162ca1101556000600060006000600173864bbda5c698ac34b47a9ea3bd4228802cc5ce3b620186a0f1",
                "storage": {}
            },
            "0x000000000000000000000000000000000000ba11": {
                "nonce": "0x00",
                "balance": "0x00",
                "code": "0x73864bbda5c698ac34b47a9ea3bd4228802cc5ce3b31620ba1aa55",
                "storage": {}
            },
            "0x000000000000000000000000000000000000ba12": {
                "nonce": "0x00",
                "balance": "0x00",
                "code": "0x73864bbda5c698ac34b47a9ea3bd4228802cc5ce3b31620ba1aa55",
                "storage": {}
            },
            "0xa94f5374fce5edbc8e2a8697c15331677e6ebf0b": {
                "nonce": "0x00",
                "balance": "0x3b9aca00",
                "code": "0x",
                "storage": {}
            }
        },
        "postState": {
            "0x00000000000000000000000000000000000000aa": {
                "nonce": "0x00",
                "balance": "0x03",
                "code": "0x61001c600081600b8239f334600014601857346001146010575b005b47600055600e565b60aaff",
                "storage": {}
            },
            "0x00000000000000000000000000000000000000cc": {
                "nonce": "0x02",
                "balance": "0x3b9ac9fc",
                "code": "0x60aa3b6000600060aa3c60aa3b60006003f06000600060006000600073864bbda5c698ac34b47a9ea3bd4228802cc5ce3b620186a0f162ca1101556000600060006000600173864bbda5c698ac34b47a9ea3bd4228802cc5ce3b620186a0f1",
                "storage": {
                    "0xca1101": "0x01"
                }
            },
            "0x000000000000000000000000000000000000ba11": {
                "nonce": "0x00",
                "balance": "0x00",
                "code": "0x73864bbda5c698ac34b47a9ea3bd4228802cc5ce3b31620ba1aa55",
                "storage": {}
            },
            "0x000000000000000000000000000000000000ba12": {
                "nonce": "0x00",
                "balance": "0x00",
                "code": "0x73864bbda5c698ac34b47a9ea3bd4228802cc5ce3b31620ba1aa55",
                "storage": {
                    "0x0ba1aa": "0x05"
                }
            },
            "0x2adc25665018aa1fe0e6bc666dac8fc2697ff9ba": {
                "nonce": "0x00",
                "balance": "0x099f4e",
                "code": "0x",
                "storage": {}
            },
            "0x864bbda5c698ac34b47a9ea3bd4228802cc5ce3b": {
                "nonce": "0x00",
                "balance": "0x05",
                "code": "0x",
                "storage": {}
            },
            "0xa94f5374fce5edbc8e2a8697c15331677e6ebf0b": {
                "nonce": "0x04",
                "balance": "0x3b7ab6f7",
                "code": "0x",
                "storage": {}
            }
        },
        "sealEngine": "NoProof"
    },
    "001-fork=Shanghai": {
        "_info": {
            "filling-transition-tool": "evm version 1.13.0-unstable-0bf2d99a"
        },
        "blocks": [
            {
                "rlp": "0xf903aaf9021aa0a35684782f8f2b5c19bfd3d903155e28b4b41e0616bff9cd47e8736832c26e99a01dcc4de8dec75d7aab85b567b6ccd41ad312451b948a7413f0a142fd40d49347942adc25665018aa1fe0e6bc666dac8fc2697ff9baa06d99468b3cbbf53354f96d99490526cae87be96dd0356abda3abd70d5a0012cea05fb0f79e6e813d1f0e1c53a26406f691ebab264a4920e2005538891ce7e7e49ba0fd5d74b750276cfcf3e738ec8e4b838e7d5cf8ef0f567e6ba7030af4a4cff130b9010000000000000000000000000000000000000000000000000000000000000000000000000000000000000000000000000000000000000000000000000000000000000000000000000000000000000000000000000000000000000000000000000000000000000000000000000000000000000000000000000000000000000000000000000000000000000000000000000000000000000000000000000000000000000000000000000000000000000000000000000000000000000000000000000000000000000000000000000000000000000000000000000000000000000000000000000000000000000000000000000000000000000000000000000000000000800188016345785d8a00008303351e0c80a0000000000000000000000000000000000000000000000000000000000000000088000000000000000007a056e81f171bcc55a6ff8345e692c0f86e5b48e01b996cadc001622fb5e363b421f90188f860800a830f42409400000000000000000000000000000000000000cc808026a0ccba01db2304343a85970166cada3a975f30075a600d3686102ae6d07b5a8295a0417b652184cdc19ba7cf787d7fa0658b7222616b4962aec60a29a41d26b22f72f860010a830186a094000000000000000000000000000000000000ba11808025a08388daba93f7822d3182dab304cc4edc82072c35374944f93a650c033169488aa012cc16a5c3327aade9b3215c9de2f844704be1683398e6f419674186531a6353f860020a830186a094864bbda5c698ac34b47a9ea3bd4228802cc5ce3b058026a0c23895b8eef67d060fa6365e97fd3edfae9a42d1e004dd143ddb8c60d1c4d016a0555733cc482d7b453b61ef44ad12b6e007a0bd11b4647e86bd5a1ce63cf6e022f860030a830186a094000000000000000000000000000000000000ba12808026a089fa4e48f8f7c161bd227c6e116bb33a84633f478496f0f10a1cb634dbd16c7da006191b9b2fd038d0abdc937351f90fd08bc54e8acb31f7d5bf0b3327d12067d7c0c0",
                "blockHeader": {
                    "parentHash": "0xa35684782f8f2b5c19bfd3d903155e28b4b41e0616bff9cd47e8736832c26e99",
                    "uncleHash": "0x1dcc4de8dec75d7aab85b567b6ccd41ad312451b948a7413f0a142fd40d49347",
                    "coinbase": "0x2adc25665018aa1fe0e6bc666dac8fc2697ff9ba",
                    "stateRoot": "0x6d99468b3cbbf53354f96d99490526cae87be96dd0356abda3abd70d5a0012ce",
                    "transactionsTrie": "0x5fb0f79e6e813d1f0e1c53a26406f691ebab264a4920e2005538891ce7e7e49b",
                    "receiptTrie": "0xfd5d74b750276cfcf3e738ec8e4b838e7d5cf8ef0f567e6ba7030af4a4cff130",
                    "bloom": "0x00000000000000000000000000000000000000000000000000000000000000000000000000000000000000000000000000000000000000000000000000000000000000000000000000000000000000000000000000000000000000000000000000000000000000000000000000000000000000000000000000000000000000000000000000000000000000000000000000000000000000000000000000000000000000000000000000000000000000000000000000000000000000000000000000000000000000000000000000000000000000000000000000000000000000000000000000000000000000000000000000000000000000000000000000000000",
                    "difficulty": "0x00",
                    "number": "0x01",
                    "gasLimit": "0x016345785d8a0000",
                    "gasUsed": "0x03351e",
                    "timestamp": "0x0c",
                    "extraData": "0x",
                    "mixHash": "0x0000000000000000000000000000000000000000000000000000000000000000",
                    "nonce": "0x0000000000000000",
                    "baseFeePerGas": "0x07",
                    "withdrawalsRoot": "0x56e81f171bcc55a6ff8345e692c0f86e5b48e01b996cadc001622fb5e363b421",
                    "hash": "0xe8f86f237690ec4a5a2fe437b0780abd3ef86265e3a6fce1c3047a8af6befb5d"
                },
                "engineNewPayload": {
                    "executionPayload": {
                        "parentHash": "0xa35684782f8f2b5c19bfd3d903155e28b4b41e0616bff9cd47e8736832c26e99",
                        "feeRecipient": "0x2adc25665018aa1fe0e6bc666dac8fc2697ff9ba",
                        "stateRoot": "0x6d99468b3cbbf53354f96d99490526cae87be96dd0356abda3abd70d5a0012ce",
                        "receiptsRoot": "0xfd5d74b750276cfcf3e738ec8e4b838e7d5cf8ef0f567e6ba7030af4a4cff130",
                        "logsBloom": "0x00000000000000000000000000000000000000000000000000000000000000000000000000000000000000000000000000000000000000000000000000000000000000000000000000000000000000000000000000000000000000000000000000000000000000000000000000000000000000000000000000000000000000000000000000000000000000000000000000000000000000000000000000000000000000000000000000000000000000000000000000000000000000000000000000000000000000000000000000000000000000000000000000000000000000000000000000000000000000000000000000000000000000000000000000000000",
                        "blockNumber": "0x1",
                        "gasLimit": "0x16345785d8a0000",
                        "gasUsed": "0x3351e",
                        "timestamp": "0xc",
                        "extraData": "0x",
                        "prevRandao": "0x0000000000000000000000000000000000000000000000000000000000000000",
                        "baseFeePerGas": "0x7",
                        "blockHash": "0xe8f86f237690ec4a5a2fe437b0780abd3ef86265e3a6fce1c3047a8af6befb5d",
                        "transactions": [
                            "0xf860800a830f42409400000000000000000000000000000000000000cc808026a0ccba01db2304343a85970166cada3a975f30075a600d3686102ae6d07b5a8295a0417b652184cdc19ba7cf787d7fa0658b7222616b4962aec60a29a41d26b22f72",
                            "0xf860010a830186a094000000000000000000000000000000000000ba11808025a08388daba93f7822d3182dab304cc4edc82072c35374944f93a650c033169488aa012cc16a5c3327aade9b3215c9de2f844704be1683398e6f419674186531a6353",
                            "0xf860020a830186a094864bbda5c698ac34b47a9ea3bd4228802cc5ce3b058026a0c23895b8eef67d060fa6365e97fd3edfae9a42d1e004dd143ddb8c60d1c4d016a0555733cc482d7b453b61ef44ad12b6e007a0bd11b4647e86bd5a1ce63cf6e022",
                            "0xf860030a830186a094000000000000000000000000000000000000ba12808026a089fa4e48f8f7c161bd227c6e116bb33a84633f478496f0f10a1cb634dbd16c7da006191b9b2fd038d0abdc937351f90fd08bc54e8acb31f7d5bf0b3327d12067d7"
                        ],
                        "withdrawals": []
                    },
                    "version": "2"
                },
                "blocknumber": "1",
                "transactions": [
                    {
                        "type": "0x00",
                        "chainId": "0x01",
                        "nonce": "0x00",
                        "gasPrice": "0x0a",
                        "gasLimit": "0x0f4240",
                        "to": "0x00000000000000000000000000000000000000cc",
                        "value": "0x00",
                        "data": "0x",
                        "v": "0x26",
                        "r": "0xccba01db2304343a85970166cada3a975f30075a600d3686102ae6d07b5a8295",
                        "s": "0x417b652184cdc19ba7cf787d7fa0658b7222616b4962aec60a29a41d26b22f72",
                        "sender": "0xa94f5374fce5edbc8e2a8697c15331677e6ebf0b"
                    },
                    {
                        "type": "0x00",
                        "chainId": "0x01",
                        "nonce": "0x01",
                        "gasPrice": "0x0a",
                        "gasLimit": "0x0186a0",
                        "to": "0x000000000000000000000000000000000000ba11",
                        "value": "0x00",
                        "data": "0x",
                        "v": "0x25",
                        "r": "0x8388daba93f7822d3182dab304cc4edc82072c35374944f93a650c033169488a",
                        "s": "0x12cc16a5c3327aade9b3215c9de2f844704be1683398e6f419674186531a6353",
                        "sender": "0xa94f5374fce5edbc8e2a8697c15331677e6ebf0b"
                    },
                    {
                        "type": "0x00",
                        "chainId": "0x01",
                        "nonce": "0x02",
                        "gasPrice": "0x0a",
                        "gasLimit": "0x0186a0",
                        "to": "0x864bbda5c698ac34b47a9ea3bd4228802cc5ce3b",
                        "value": "0x05",
                        "data": "0x",
                        "v": "0x26",
                        "r": "0xc23895b8eef67d060fa6365e97fd3edfae9a42d1e004dd143ddb8c60d1c4d016",
                        "s": "0x555733cc482d7b453b61ef44ad12b6e007a0bd11b4647e86bd5a1ce63cf6e022",
                        "sender": "0xa94f5374fce5edbc8e2a8697c15331677e6ebf0b"
                    },
                    {
                        "type": "0x00",
                        "chainId": "0x01",
                        "nonce": "0x03",
                        "gasPrice": "0x0a",
                        "gasLimit": "0x0186a0",
                        "to": "0x000000000000000000000000000000000000ba12",
                        "value": "0x00",
                        "data": "0x",
                        "v": "0x26",
                        "r": "0x89fa4e48f8f7c161bd227c6e116bb33a84633f478496f0f10a1cb634dbd16c7d",
                        "s": "0x06191b9b2fd038d0abdc937351f90fd08bc54e8acb31f7d5bf0b3327d12067d7",
                        "sender": "0xa94f5374fce5edbc8e2a8697c15331677e6ebf0b"
                    }
                ],
                "uncleHeaders": [],
                "withdrawals": []
            }
        ],
        "genesisBlockHeader": {
            "parentHash": "0x0000000000000000000000000000000000000000000000000000000000000000",
            "uncleHash": "0x1dcc4de8dec75d7aab85b567b6ccd41ad312451b948a7413f0a142fd40d49347",
            "coinbase": "0x0000000000000000000000000000000000000000",
            "stateRoot": "0x6a25755ef4ab6363a1476d1c706ce0962900e8177afe7b9dd9974966ef3f3ed5",
            "transactionsTrie": "0x56e81f171bcc55a6ff8345e692c0f86e5b48e01b996cadc001622fb5e363b421",
            "receiptTrie": "0x56e81f171bcc55a6ff8345e692c0f86e5b48e01b996cadc001622fb5e363b421",
            "bloom": "0x00000000000000000000000000000000000000000000000000000000000000000000000000000000000000000000000000000000000000000000000000000000000000000000000000000000000000000000000000000000000000000000000000000000000000000000000000000000000000000000000000000000000000000000000000000000000000000000000000000000000000000000000000000000000000000000000000000000000000000000000000000000000000000000000000000000000000000000000000000000000000000000000000000000000000000000000000000000000000000000000000000000000000000000000000000000",
            "difficulty": "0x00",
            "number": "0x00",
            "gasLimit": "0x016345785d8a0000",
            "gasUsed": "0x00",
            "timestamp": "0x00",
            "extraData": "0x00",
            "mixHash": "0x0000000000000000000000000000000000000000000000000000000000000000",
            "nonce": "0x0000000000000000",
            "baseFeePerGas": "0x07",
            "withdrawalsRoot": "0x56e81f171bcc55a6ff8345e692c0f86e5b48e01b996cadc001622fb5e363b421",
            "hash": "0xa35684782f8f2b5c19bfd3d903155e28b4b41e0616bff9cd47e8736832c26e99"
        },
        "genesisRLP": "0xf9021df90217a00000000000000000000000000000000000000000000000000000000000000000a01dcc4de8dec75d7aab85b567b6ccd41ad312451b948a7413f0a142fd40d49347940000000000000000000000000000000000000000a06a25755ef4ab6363a1476d1c706ce0962900e8177afe7b9dd9974966ef3f3ed5a056e81f171bcc55a6ff8345e692c0f86e5b48e01b996cadc001622fb5e363b421a056e81f171bcc55a6ff8345e692c0f86e5b48e01b996cadc001622fb5e363b421b9010000000000000000000000000000000000000000000000000000000000000000000000000000000000000000000000000000000000000000000000000000000000000000000000000000000000000000000000000000000000000000000000000000000000000000000000000000000000000000000000000000000000000000000000000000000000000000000000000000000000000000000000000000000000000000000000000000000000000000000000000000000000000000000000000000000000000000000000000000000000000000000000000000000000000000000000000000000000000000000000000000000000000000000000000000000000808088016345785d8a0000808000a0000000000000000000000000000000000000000000000000000000000000000088000000000000000007a056e81f171bcc55a6ff8345e692c0f86e5b48e01b996cadc001622fb5e363b421c0c0c0",
        "lastblockhash": "0xe8f86f237690ec4a5a2fe437b0780abd3ef86265e3a6fce1c3047a8af6befb5d",
        "network": "Shanghai",
        "pre": {
            "0x00000000000000000000000000000000000000aa": {
                "nonce": "0x00",
                "balance": "0x00",
                "code": "0x61001c600081600b8239f334600014601857346001146010575b005b47600055600e565b60aaff",
                "storage": {}
            },
            "0x00000000000000000000000000000000000000cc": {
                "nonce": "0x01",
                "balance": "0x3b9aca00",
                "code": "0x60aa3b6000600060aa3c60aa3b60006003f06000600060006000600073864bbda5c698ac34b47a9ea3bd4228802cc5ce3b620186a0f162ca1101556000600060006000600173864bbda5c698ac34b47a9ea3bd4228802cc5ce3b620186a0f1",
                "storage": {}
            },
            "0x000000000000000000000000000000000000ba11": {
                "nonce": "0x00",
                "balance": "0x00",
                "code": "0x73864bbda5c698ac34b47a9ea3bd4228802cc5ce3b31620ba1aa55",
                "storage": {}
            },
            "0x000000000000000000000000000000000000ba12": {
                "nonce": "0x00",
                "balance": "0x00",
                "code": "0x73864bbda5c698ac34b47a9ea3bd4228802cc5ce3b31620ba1aa55",
                "storage": {}
            },
            "0xa94f5374fce5edbc8e2a8697c15331677e6ebf0b": {
                "nonce": "0x00",
                "balance": "0x3b9aca00",
                "code": "0x",
                "storage": {}
            }
        },
        "postState": {
            "0x00000000000000000000000000000000000000aa": {
                "nonce": "0x00",
                "balance": "0x03",
                "code": "0x61001c600081600b8239f334600014601857346001146010575b005b47600055600e565b60aaff",
                "storage": {}
            },
            "0x00000000000000000000000000000000000000cc": {
                "nonce": "0x02",
                "balance": "0x3b9ac9fc",
                "code": "0x60aa3b6000600060aa3c60aa3b60006003f06000600060006000600073864bbda5c698ac34b47a9ea3bd4228802cc5ce3b620186a0f162ca1101556000600060006000600173864bbda5c698ac34b47a9ea3bd4228802cc5ce3b620186a0f1",
                "storage": {
                    "0xca1101": "0x01"
                }
            },
            "0x000000000000000000000000000000000000ba11": {
                "nonce": "0x00",
                "balance": "0x00",
                "code": "0x73864bbda5c698ac34b47a9ea3bd4228802cc5ce3b31620ba1aa55",
                "storage": {}
            },
            "0x000000000000000000000000000000000000ba12": {
                "nonce": "0x00",
                "balance": "0x00",
                "code": "0x73864bbda5c698ac34b47a9ea3bd4228802cc5ce3b31620ba1aa55",
                "storage": {
                    "0x0ba1aa": "0x05"
                }
            },
            "0x2adc25665018aa1fe0e6bc666dac8fc2697ff9ba": {
                "nonce": "0x00",
                "balance": "0x099f5a",
                "code": "0x",
                "storage": {}
            },
            "0x864bbda5c698ac34b47a9ea3bd4228802cc5ce3b": {
                "nonce": "0x00",
                "balance": "0x05",
                "code": "0x",
                "storage": {}
            },
            "0xa94f5374fce5edbc8e2a8697c15331677e6ebf0b": {
                "nonce": "0x04",
                "balance": "0x3b7ab6cf",
                "code": "0x",
                "storage": {}
            }
        },
        "sealEngine": "NoProof"
    },
    "002-fork=Cancun": {
        "_info": {
            "filling-transition-tool": "evm version 1.13.0-unstable-0bf2d99a"
        },
        "blocks": [
            {
                "rlp": "0xf903cdf9023da0fadffa901cbffe40b93d676973e1acc9d4fca7beb130cfcfc5d210460d8ad259a01dcc4de8dec75d7aab85b567b6ccd41ad312451b948a7413f0a142fd40d49347942adc25665018aa1fe0e6bc666dac8fc2697ff9baa086559c9676ff0fb1c45d224ab1004a0f385f9af4af38e37a82dbb66aac8c70eda05fb0f79e6e813d1f0e1c53a26406f691ebab264a4920e2005538891ce7e7e49ba0fd5d74b750276cfcf3e738ec8e4b838e7d5cf8ef0f567e6ba7030af4a4cff130b9010000000000000000000000000000000000000000000000000000000000000000000000000000000000000000000000000000000000000000000000000000000000000000000000000000000000000000000000000000000000000000000000000000000000000000000000000000000000000000000000000000000000000000000000000000000000000000000000000000000000000000000000000000000000000000000000000000000000000000000000000000000000000000000000000000000000000000000000000000000000000000000000000000000000000000000000000000000000000000000000000000000000000000000000000000000000800188016345785d8a00008303351e0c80a0000000000000000000000000000000000000000000000000000000000000000088000000000000000007a056e81f171bcc55a6ff8345e692c0f86e5b48e01b996cadc001622fb5e363b4218080a00000000000000000000000000000000000000000000000000000000000000000f90188f860800a830f42409400000000000000000000000000000000000000cc808026a0ccba01db2304343a85970166cada3a975f30075a600d3686102ae6d07b5a8295a0417b652184cdc19ba7cf787d7fa0658b7222616b4962aec60a29a41d26b22f72f860010a830186a094000000000000000000000000000000000000ba11808025a08388daba93f7822d3182dab304cc4edc82072c35374944f93a650c033169488aa012cc16a5c3327aade9b3215c9de2f844704be1683398e6f419674186531a6353f860020a830186a094864bbda5c698ac34b47a9ea3bd4228802cc5ce3b058026a0c23895b8eef67d060fa6365e97fd3edfae9a42d1e004dd143ddb8c60d1c4d016a0555733cc482d7b453b61ef44ad12b6e007a0bd11b4647e86bd5a1ce63cf6e022f860030a830186a094000000000000000000000000000000000000ba12808026a089fa4e48f8f7c161bd227c6e116bb33a84633f478496f0f10a1cb634dbd16c7da006191b9b2fd038d0abdc937351f90fd08bc54e8acb31f7d5bf0b3327d12067d7c0c0",
                "blockHeader": {
                    "parentHash": "0xfadffa901cbffe40b93d676973e1acc9d4fca7beb130cfcfc5d210460d8ad259",
                    "uncleHash": "0x1dcc4de8dec75d7aab85b567b6ccd41ad312451b948a7413f0a142fd40d49347",
                    "coinbase": "0x2adc25665018aa1fe0e6bc666dac8fc2697ff9ba",
                    "stateRoot": "0x86559c9676ff0fb1c45d224ab1004a0f385f9af4af38e37a82dbb66aac8c70ed",
                    "transactionsTrie": "0x5fb0f79e6e813d1f0e1c53a26406f691ebab264a4920e2005538891ce7e7e49b",
                    "receiptTrie": "0xfd5d74b750276cfcf3e738ec8e4b838e7d5cf8ef0f567e6ba7030af4a4cff130",
                    "bloom": "0x00000000000000000000000000000000000000000000000000000000000000000000000000000000000000000000000000000000000000000000000000000000000000000000000000000000000000000000000000000000000000000000000000000000000000000000000000000000000000000000000000000000000000000000000000000000000000000000000000000000000000000000000000000000000000000000000000000000000000000000000000000000000000000000000000000000000000000000000000000000000000000000000000000000000000000000000000000000000000000000000000000000000000000000000000000000",
                    "difficulty": "0x00",
                    "number": "0x01",
                    "gasLimit": "0x016345785d8a0000",
                    "gasUsed": "0x03351e",
                    "timestamp": "0x0c",
                    "extraData": "0x",
                    "mixHash": "0x0000000000000000000000000000000000000000000000000000000000000000",
                    "nonce": "0x0000000000000000",
                    "baseFeePerGas": "0x07",
                    "withdrawalsRoot": "0x56e81f171bcc55a6ff8345e692c0f86e5b48e01b996cadc001622fb5e363b421",
                    "blobGasUsed": "0x00",
                    "excessBlobGas": "0x00",
                    "parentBeaconBlockRoot": "0x0000000000000000000000000000000000000000000000000000000000000000",
                    "hash": "0xb115dcd06f363a2b64573c0415799bc0c9d1ed8f37e9e7678ba073810cd250d5"
                },
                "engineNewPayload": {
                    "executionPayload": {
                        "parentHash": "0xfadffa901cbffe40b93d676973e1acc9d4fca7beb130cfcfc5d210460d8ad259",
                        "feeRecipient": "0x2adc25665018aa1fe0e6bc666dac8fc2697ff9ba",
                        "stateRoot": "0x86559c9676ff0fb1c45d224ab1004a0f385f9af4af38e37a82dbb66aac8c70ed",
                        "receiptsRoot": "0xfd5d74b750276cfcf3e738ec8e4b838e7d5cf8ef0f567e6ba7030af4a4cff130",
                        "logsBloom": "0x00000000000000000000000000000000000000000000000000000000000000000000000000000000000000000000000000000000000000000000000000000000000000000000000000000000000000000000000000000000000000000000000000000000000000000000000000000000000000000000000000000000000000000000000000000000000000000000000000000000000000000000000000000000000000000000000000000000000000000000000000000000000000000000000000000000000000000000000000000000000000000000000000000000000000000000000000000000000000000000000000000000000000000000000000000000",
                        "blockNumber": "0x1",
                        "gasLimit": "0x16345785d8a0000",
                        "gasUsed": "0x3351e",
                        "timestamp": "0xc",
                        "extraData": "0x",
                        "prevRandao": "0x0000000000000000000000000000000000000000000000000000000000000000",
                        "baseFeePerGas": "0x7",
                        "blobGasUsed": "0x0",
                        "excessBlobGas": "0x0",
                        "blockHash": "0xb115dcd06f363a2b64573c0415799bc0c9d1ed8f37e9e7678ba073810cd250d5",
                        "transactions": [
                            "0xf860800a830f42409400000000000000000000000000000000000000cc808026a0ccba01db2304343a85970166cada3a975f30075a600d3686102ae6d07b5a8295a0417b652184cdc19ba7cf787d7fa0658b7222616b4962aec60a29a41d26b22f72",
                            "0xf860010a830186a094000000000000000000000000000000000000ba11808025a08388daba93f7822d3182dab304cc4edc82072c35374944f93a650c033169488aa012cc16a5c3327aade9b3215c9de2f844704be1683398e6f419674186531a6353",
                            "0xf860020a830186a094864bbda5c698ac34b47a9ea3bd4228802cc5ce3b058026a0c23895b8eef67d060fa6365e97fd3edfae9a42d1e004dd143ddb8c60d1c4d016a0555733cc482d7b453b61ef44ad12b6e007a0bd11b4647e86bd5a1ce63cf6e022",
                            "0xf860030a830186a094000000000000000000000000000000000000ba12808026a089fa4e48f8f7c161bd227c6e116bb33a84633f478496f0f10a1cb634dbd16c7da006191b9b2fd038d0abdc937351f90fd08bc54e8acb31f7d5bf0b3327d12067d7"
                        ],
                        "withdrawals": []
                    },
                    "expectedBlobVersionedHashes": [],
                    "version": "3",
                    "parentBeaconBlockRoot": "0x0000000000000000000000000000000000000000000000000000000000000000"
                },
                "blocknumber": "1",
                "transactions": [
                    {
                        "type": "0x00",
                        "chainId": "0x01",
                        "nonce": "0x00",
                        "gasPrice": "0x0a",
                        "gasLimit": "0x0f4240",
                        "to": "0x00000000000000000000000000000000000000cc",
                        "value": "0x00",
                        "data": "0x",
                        "v": "0x26",
                        "r": "0xccba01db2304343a85970166cada3a975f30075a600d3686102ae6d07b5a8295",
                        "s": "0x417b652184cdc19ba7cf787d7fa0658b7222616b4962aec60a29a41d26b22f72",
                        "sender": "0xa94f5374fce5edbc8e2a8697c15331677e6ebf0b"
                    },
                    {
                        "type": "0x00",
                        "chainId": "0x01",
                        "nonce": "0x01",
                        "gasPrice": "0x0a",
                        "gasLimit": "0x0186a0",
                        "to": "0x000000000000000000000000000000000000ba11",
                        "value": "0x00",
                        "data": "0x",
                        "v": "0x25",
                        "r": "0x8388daba93f7822d3182dab304cc4edc82072c35374944f93a650c033169488a",
                        "s": "0x12cc16a5c3327aade9b3215c9de2f844704be1683398e6f419674186531a6353",
                        "sender": "0xa94f5374fce5edbc8e2a8697c15331677e6ebf0b"
                    },
                    {
                        "type": "0x00",
                        "chainId": "0x01",
                        "nonce": "0x02",
                        "gasPrice": "0x0a",
                        "gasLimit": "0x0186a0",
                        "to": "0x864bbda5c698ac34b47a9ea3bd4228802cc5ce3b",
                        "value": "0x05",
                        "data": "0x",
                        "v": "0x26",
                        "r": "0xc23895b8eef67d060fa6365e97fd3edfae9a42d1e004dd143ddb8c60d1c4d016",
                        "s": "0x555733cc482d7b453b61ef44ad12b6e007a0bd11b4647e86bd5a1ce63cf6e022",
                        "sender": "0xa94f5374fce5edbc8e2a8697c15331677e6ebf0b"
                    },
                    {
                        "type": "0x00",
                        "chainId": "0x01",
                        "nonce": "0x03",
                        "gasPrice": "0x0a",
                        "gasLimit": "0x0186a0",
                        "to": "0x000000000000000000000000000000000000ba12",
                        "value": "0x00",
                        "data": "0x",
                        "v": "0x26",
                        "r": "0x89fa4e48f8f7c161bd227c6e116bb33a84633f478496f0f10a1cb634dbd16c7d",
                        "s": "0x06191b9b2fd038d0abdc937351f90fd08bc54e8acb31f7d5bf0b3327d12067d7",
                        "sender": "0xa94f5374fce5edbc8e2a8697c15331677e6ebf0b"
                    }
                ],
                "uncleHeaders": [],
                "withdrawals": []
            }
        ],
        "genesisBlockHeader": {
            "parentHash": "0x0000000000000000000000000000000000000000000000000000000000000000",
            "uncleHash": "0x1dcc4de8dec75d7aab85b567b6ccd41ad312451b948a7413f0a142fd40d49347",
            "coinbase": "0x0000000000000000000000000000000000000000",
            "stateRoot": "0x552f9e2853cb672c66756048f6882d6e16f6edfb8f81ed40b29b3766a37d8109",
            "transactionsTrie": "0x56e81f171bcc55a6ff8345e692c0f86e5b48e01b996cadc001622fb5e363b421",
            "receiptTrie": "0x56e81f171bcc55a6ff8345e692c0f86e5b48e01b996cadc001622fb5e363b421",
            "bloom": "0x00000000000000000000000000000000000000000000000000000000000000000000000000000000000000000000000000000000000000000000000000000000000000000000000000000000000000000000000000000000000000000000000000000000000000000000000000000000000000000000000000000000000000000000000000000000000000000000000000000000000000000000000000000000000000000000000000000000000000000000000000000000000000000000000000000000000000000000000000000000000000000000000000000000000000000000000000000000000000000000000000000000000000000000000000000000",
            "difficulty": "0x00",
            "number": "0x00",
            "gasLimit": "0x016345785d8a0000",
            "gasUsed": "0x00",
            "timestamp": "0x00",
            "extraData": "0x00",
            "mixHash": "0x0000000000000000000000000000000000000000000000000000000000000000",
            "nonce": "0x0000000000000000",
            "baseFeePerGas": "0x07",
            "withdrawalsRoot": "0x56e81f171bcc55a6ff8345e692c0f86e5b48e01b996cadc001622fb5e363b421",
            "blobGasUsed": "0x00",
            "excessBlobGas": "0x00",
            "parentBeaconBlockRoot": "0x0000000000000000000000000000000000000000000000000000000000000000",
            "hash": "0xfadffa901cbffe40b93d676973e1acc9d4fca7beb130cfcfc5d210460d8ad259"
        },
        "genesisRLP": "0xf90240f9023aa00000000000000000000000000000000000000000000000000000000000000000a01dcc4de8dec75d7aab85b567b6ccd41ad312451b948a7413f0a142fd40d49347940000000000000000000000000000000000000000a0552f9e2853cb672c66756048f6882d6e16f6edfb8f81ed40b29b3766a37d8109a056e81f171bcc55a6ff8345e692c0f86e5b48e01b996cadc001622fb5e363b421a056e81f171bcc55a6ff8345e692c0f86e5b48e01b996cadc001622fb5e363b421b9010000000000000000000000000000000000000000000000000000000000000000000000000000000000000000000000000000000000000000000000000000000000000000000000000000000000000000000000000000000000000000000000000000000000000000000000000000000000000000000000000000000000000000000000000000000000000000000000000000000000000000000000000000000000000000000000000000000000000000000000000000000000000000000000000000000000000000000000000000000000000000000000000000000000000000000000000000000000000000000000000000000000000000000000000000000000808088016345785d8a0000808000a0000000000000000000000000000000000000000000000000000000000000000088000000000000000007a056e81f171bcc55a6ff8345e692c0f86e5b48e01b996cadc001622fb5e363b4218080a00000000000000000000000000000000000000000000000000000000000000000c0c0c0",
        "lastblockhash": "0xb115dcd06f363a2b64573c0415799bc0c9d1ed8f37e9e7678ba073810cd250d5",
        "network": "Cancun",
        "pre": {
            "0x00000000000000000000000000000000000000aa": {
                "nonce": "0x00",
                "balance": "0x00",
                "code": "0x61001c600081600b8239f334600014601857346001146010575b005b47600055600e565b60aaff",
                "storage": {}
            },
            "0x00000000000000000000000000000000000000cc": {
                "nonce": "0x01",
                "balance": "0x3b9aca00",
                "code": "0x60aa3b6000600060aa3c60aa3b60006003f06000600060006000600073864bbda5c698ac34b47a9ea3bd4228802cc5ce3b620186a0f162ca1101556000600060006000600173864bbda5c698ac34b47a9ea3bd4228802cc5ce3b620186a0f1",
                "storage": {}
            },
            "0x000000000000000000000000000000000000ba11": {
                "nonce": "0x00",
                "balance": "0x00",
                "code": "0x73864bbda5c698ac34b47a9ea3bd4228802cc5ce3b31620ba1aa55",
                "storage": {}
            },
            "0x000000000000000000000000000000000000ba12": {
                "nonce": "0x00",
                "balance": "0x00",
                "code": "0x73864bbda5c698ac34b47a9ea3bd4228802cc5ce3b31620ba1aa55",
                "storage": {}
            },
            "0xa94f5374fce5edbc8e2a8697c15331677e6ebf0b": {
                "nonce": "0x00",
                "balance": "0x3b9aca00",
                "code": "0x",
                "storage": {}
            },
            "0xbeac00ddb15f3b6d645c48263dc93862413a222d": {
                "nonce": "0x01",
                "balance": "0x00",
                "code": "0x3373fffffffffffffffffffffffffffffffffffffffe14604457602036146024575f5ffd5b620180005f350680545f35146037575f5ffd5b6201800001545f5260205ff35b6201800042064281555f359062018000015500",
                "storage": {}
            }
        },
        "postState": {
            "0x00000000000000000000000000000000000000aa": {
                "nonce": "0x00",
                "balance": "0x03",
                "code": "0x61001c600081600b8239f334600014601857346001146010575b005b47600055600e565b60aaff",
                "storage": {}
            },
            "0x00000000000000000000000000000000000000cc": {
                "nonce": "0x02",
                "balance": "0x3b9ac9fc",
                "code": "0x60aa3b6000600060aa3c60aa3b60006003f06000600060006000600073864bbda5c698ac34b47a9ea3bd4228802cc5ce3b620186a0f162ca1101556000600060006000600173864bbda5c698ac34b47a9ea3bd4228802cc5ce3b620186a0f1",
                "storage": {
                    "0xca1101": "0x01"
                }
            },
            "0x000000000000000000000000000000000000ba11": {
                "nonce": "0x00",
                "balance": "0x00",
                "code": "0x73864bbda5c698ac34b47a9ea3bd4228802cc5ce3b31620ba1aa55",
                "storage": {}
            },
            "0x000000000000000000000000000000000000ba12": {
                "nonce": "0x00",
                "balance": "0x00",
                "code": "0x73864bbda5c698ac34b47a9ea3bd4228802cc5ce3b31620ba1aa55",
                "storage": {
                    "0x0ba1aa": "0x05"
                }
            },
            "0x2adc25665018aa1fe0e6bc666dac8fc2697ff9ba": {
                "nonce": "0x00",
                "balance": "0x099f5a",
                "code": "0x",
                "storage": {}
            },
            "0x864bbda5c698ac34b47a9ea3bd4228802cc5ce3b": {
                "nonce": "0x00",
                "balance": "0x05",
                "code": "0x",
                "storage": {}
            },
            "0xa94f5374fce5edbc8e2a8697c15331677e6ebf0b": {
                "nonce": "0x04",
                "balance": "0x3b7ab6cf",
                "code": "0x",
                "storage": {}
            },
            "0xbeac00ddb15f3b6d645c48263dc93862413a222d": {
                "nonce": "0x01",
                "balance": "0x00",
                "code": "0x3373fffffffffffffffffffffffffffffffffffffffe14604457602036146024575f5ffd5b620180005f350680545f35146037575f5ffd5b6201800001545f5260205ff35b6201800042064281555f359062018000015500",
                "storage": {
                    "0x0c": "0x0c"
                }
            }
        },
        "sealEngine": "NoProof"
    }
}